{
  "_format": "hh-sol-artifact-1",
  "contractName": "Beau",
  "sourceName": "contracts/Beau.sol",
  "abi": [
    {
      "inputs": [
        {
          "internalType": "string",
          "name": "_name",
          "type": "string"
        },
        {
          "internalType": "string",
          "name": "_desc",
          "type": "string"
        },
        {
          "internalType": "string",
          "name": "_UD",
          "type": "string"
        },
        {
          "internalType": "string",
          "name": "_URL",
          "type": "string"
        }
      ],
      "name": "createPicture",
      "outputs": [],
      "stateMutability": "nonpayable",
      "type": "function"
    },
    {
      "inputs": [],
      "name": "getPictureCount",
      "outputs": [
        {
          "internalType": "uint256",
          "name": "",
          "type": "uint256"
        }
      ],
      "stateMutability": "view",
      "type": "function"
    },
    {
      "inputs": [
        {
          "internalType": "uint256",
          "name": "_index",
          "type": "uint256"
        }
      ],
      "name": "getPictures",
      "outputs": [
        {
          "internalType": "address",
          "name": "ownerAddress",
          "type": "address"
        },
        {
          "internalType": "string",
          "name": "name",
          "type": "string"
        },
        {
          "internalType": "string",
          "name": "desc",
          "type": "string"
        },
        {
          "internalType": "string",
          "name": "UD",
          "type": "string"
        },
        {
          "internalType": "string",
          "name": "URL",
          "type": "string"
        },
        {
          "internalType": "uint256",
          "name": "likes",
          "type": "uint256"
        },
        {
          "internalType": "uint256",
          "name": "downloads",
          "type": "uint256"
        }
      ],
      "stateMutability": "view",
      "type": "function"
    },
    {
      "inputs": [
        {
          "internalType": "uint256",
          "name": "_index",
          "type": "uint256"
        }
      ],
      "name": "setDownload",
      "outputs": [],
      "stateMutability": "nonpayable",
      "type": "function"
    },
    {
      "inputs": [
        {
          "internalType": "uint256",
          "name": "_index",
          "type": "uint256"
        }
      ],
      "name": "setLike",
      "outputs": [],
      "stateMutability": "nonpayable",
      "type": "function"
    }
  ],
  "bytecode": "0x608060405234801561001057600080fd5b50610e5b806100206000396000f3fe608060405234801561001057600080fd5b50600436106100575760003560e01c806310decf6f1461005c5780632cb4c7e714610078578063340a71ba1461009657806361f7b059146100cc57806387ad487c146100e8575b600080fd5b61007660048036038101906100719190610676565b610104565b005b610080610148565b60405161008d91906106b2565b60405180910390f35b6100b060048036038101906100ab9190610676565b610151565b6040516100c3979695949392919061079e565b60405180910390f35b6100e660048036038101906100e19190610676565b61040b565b005b61010260048036038101906100fd919061095e565b6104e1565b005b60006001828154811061011a57610119610a35565b5b9060005260206000209060070201905080600601600081548092919061013f90610a93565b91905055505050565b60008054905090565b600060608060608060008060006001898154811061017257610171610a35565b5b906000526020600020906007020190508060000160009054906101000a900473ffffffffffffffffffffffffffffffffffffffff1681600101826002018360030184600401856005015486600601548580546101cd90610b0a565b80601f01602080910402602001604051908101604052809291908181526020018280546101f990610b0a565b80156102465780601f1061021b57610100808354040283529160200191610246565b820191906000526020600020905b81548152906001019060200180831161022957829003601f168201915b5050505050955084805461025990610b0a565b80601f016020809104026020016040519081016040528092919081815260200182805461028590610b0a565b80156102d25780601f106102a7576101008083540402835291602001916102d2565b820191906000526020600020905b8154815290600101906020018083116102b557829003601f168201915b505050505094508380546102e590610b0a565b80601f016020809104026020016040519081016040528092919081815260200182805461031190610b0a565b801561035e5780601f106103335761010080835404028352916020019161035e565b820191906000526020600020905b81548152906001019060200180831161034157829003601f168201915b5050505050935082805461037190610b0a565b80601f016020809104026020016040519081016040528092919081815260200182805461039d90610b0a565b80156103ea5780601f106103bf576101008083540402835291602001916103ea565b820191906000526020600020905b8154815290600101906020018083116103cd57829003601f168201915b50505050509250975097509750975097509750975050919395979092949650565b60006001828154811061042157610420610a35565b5b906000526020600020906007020190508060000160009054906101000a900473ffffffffffffffffffffffffffffffffffffffff1673ffffffffffffffffffffffffffffffffffffffff163373ffffffffffffffffffffffffffffffffffffffff16036104c3576040517f08c379a00000000000000000000000000000000000000000000000000000000081526004016104ba90610b87565b60405180910390fd5b8060050160008154809291906104d890610a93565b91905055505050565b60008060016040518060e001604052803373ffffffffffffffffffffffffffffffffffffffff16815260200188815260200187815260200186815260200185815260200184815260200183815250908060018154018082558091505060019003906000526020600020906007020160009091909190915060008201518160000160006101000a81548173ffffffffffffffffffffffffffffffffffffffff021916908373ffffffffffffffffffffffffffffffffffffffff16021790555060208201518160010190816105b49190610d53565b5060408201518160020190816105ca9190610d53565b5060608201518160030190816105e09190610d53565b5060808201518160040190816105f69190610d53565b5060a0820151816005015560c08201518160060155505060008081548092919061061f90610a93565b9190505550505050505050565b6000604051905090565b600080fd5b600080fd5b6000819050919050565b61065381610640565b811461065e57600080fd5b50565b6000813590506106708161064a565b92915050565b60006020828403121561068c5761068b610636565b5b600061069a84828501610661565b91505092915050565b6106ac81610640565b82525050565b60006020820190506106c760008301846106a3565b92915050565b600073ffffffffffffffffffffffffffffffffffffffff82169050919050565b60006106f8826106cd565b9050919050565b610708816106ed565b82525050565b600081519050919050565b600082825260208201905092915050565b60005b8381101561074857808201518184015260208101905061072d565b60008484015250505050565b6000601f19601f8301169050919050565b60006107708261070e565b61077a8185610719565b935061078a81856020860161072a565b61079381610754565b840191505092915050565b600060e0820190506107b3600083018a6106ff565b81810360208301526107c58189610765565b905081810360408301526107d98188610765565b905081810360608301526107ed8187610765565b905081810360808301526108018186610765565b905061081060a08301856106a3565b61081d60c08301846106a3565b98975050505050505050565b600080fd5b600080fd5b7f4e487b7100000000000000000000000000000000000000000000000000000000600052604160045260246000fd5b61086b82610754565b810181811067ffffffffffffffff8211171561088a57610889610833565b5b80604052505050565b600061089d61062c565b90506108a98282610862565b919050565b600067ffffffffffffffff8211156108c9576108c8610833565b5b6108d282610754565b9050602081019050919050565b82818337600083830152505050565b60006109016108fc846108ae565b610893565b90508281526020810184848401111561091d5761091c61082e565b5b6109288482856108df565b509392505050565b600082601f83011261094557610944610829565b5b81356109558482602086016108ee565b91505092915050565b6000806000806080858703121561097857610977610636565b5b600085013567ffffffffffffffff8111156109965761099561063b565b5b6109a287828801610930565b945050602085013567ffffffffffffffff8111156109c3576109c261063b565b5b6109cf87828801610930565b935050604085013567ffffffffffffffff8111156109f0576109ef61063b565b5b6109fc87828801610930565b925050606085013567ffffffffffffffff811115610a1d57610a1c61063b565b5b610a2987828801610930565b91505092959194509250565b7f4e487b7100000000000000000000000000000000000000000000000000000000600052603260045260246000fd5b7f4e487b7100000000000000000000000000000000000000000000000000000000600052601160045260246000fd5b6000610a9e82610640565b91507fffffffffffffffffffffffffffffffffffffffffffffffffffffffffffffffff8203610ad057610acf610a64565b5b600182019050919050565b7f4e487b7100000000000000000000000000000000000000000000000000000000600052602260045260246000fd5b60006002820490506001821680610b2257607f821691505b602082108103610b3557610b34610adb565b5b50919050565b7f4f776e65722063616e2774206c696b6520746865207069637475726500000000600082015250565b6000610b71601c83610719565b9150610b7c82610b3b565b602082019050919050565b60006020820190508181036000830152610ba081610b64565b9050919050565b60008190508160005260206000209050919050565b60006020601f8301049050919050565b600082821b905092915050565b600060088302610c097fffffffffffffffffffffffffffffffffffffffffffffffffffffffffffffffff82610bcc565b610c138683610bcc565b95508019841693508086168417925050509392505050565b6000819050919050565b6000610c50610c4b610c4684610640565b610c2b565b610640565b9050919050565b6000819050919050565b610c6a83610c35565b610c7e610c7682610c57565b848454610bd9565b825550505050565b600090565b610c93610c86565b610c9e818484610c61565b505050565b5b81811015610cc257610cb7600082610c8b565b600181019050610ca4565b5050565b601f821115610d0757610cd881610ba7565b610ce184610bbc565b81016020851015610cf0578190505b610d04610cfc85610bbc565b830182610ca3565b50505b505050565b600082821c905092915050565b6000610d2a60001984600802610d0c565b1980831691505092915050565b6000610d438383610d19565b9150826002028217905092915050565b610d5c8261070e565b67ffffffffffffffff811115610d7557610d74610833565b5b610d7f8254610b0a565b610d8a828285610cc6565b600060209050601f831160018114610dbd5760008415610dab578287015190505b610db58582610d37565b865550610e1d565b601f198416610dcb86610ba7565b60005b82811015610df357848901518255600182019150602085019450602081019050610dce565b86831015610e105784890151610e0c601f891682610d19565b8355505b6001600288020188555050505b50505050505056fea2646970667358221220e2467429a8642a7d4ae82de99b6c4ab43a8a0e368b2c2d8377a35f649c44859664736f6c63430008110033",
  "linkReferences": {},
  "deployedLinkReferences": {}
}